{
  "contractName": "MyShop",
  "abi": [
    {
      "anonymous": false,
      "inputs": [
        {
          "indexed": false,
          "internalType": "string",
          "name": "_name",
          "type": "string"
        },
        {
          "indexed": false,
          "internalType": "string",
          "name": "_email",
          "type": "string"
        },
        {
          "indexed": false,
          "internalType": "string",
          "name": "_shipAddress",
          "type": "string"
        }
      ],
      "name": "NewBuyer",
      "type": "event"
    },
    {
      "anonymous": false,
      "inputs": [
        {
          "indexed": false,
          "internalType": "uint256",
          "name": "_itemID",
          "type": "uint256"
        },
        {
          "indexed": false,
          "internalType": "string",
          "name": "_itemName",
          "type": "string"
        },
        {
          "indexed": false,
          "internalType": "string",
          "name": "_description",
          "type": "string"
        },
        {
          "indexed": false,
          "internalType": "uint256",
          "name": "_inventory",
          "type": "uint256"
        },
        {
          "indexed": false,
          "internalType": "uint256",
          "name": "_price",
          "type": "uint256"
        }
      ],
      "name": "NewItem",
      "type": "event"
    },
    {
      "anonymous": false,
      "inputs": [
        {
          "indexed": false,
          "internalType": "uint256",
          "name": "_orderID",
          "type": "uint256"
        },
        {
          "indexed": false,
          "internalType": "uint256",
          "name": "itemID",
          "type": "uint256"
        },
        {
          "indexed": false,
          "internalType": "uint256",
          "name": "_quantity",
          "type": "uint256"
        },
        {
          "indexed": false,
          "internalType": "address",
          "name": "_from",
          "type": "address"
        }
      ],
      "name": "NewOrder",
      "type": "event"
    },
    {
      "constant": true,
      "inputs": [
        {
          "internalType": "uint256",
          "name": "",
          "type": "uint256"
        }
      ],
      "name": "buyers",
      "outputs": [
        {
          "internalType": "string",
          "name": "name",
          "type": "string"
        },
        {
          "internalType": "string",
          "name": "email",
          "type": "string"
        },
        {
          "internalType": "string",
          "name": "shipAddress",
          "type": "string"
        }
      ],
      "payable": false,
      "stateMutability": "view",
      "type": "function"
    },
    {
      "constant": true,
      "inputs": [
        {
          "internalType": "uint256",
          "name": "",
          "type": "uint256"
        }
      ],
      "name": "items",
      "outputs": [
        {
          "internalType": "uint256",
          "name": "itemID",
          "type": "uint256"
        },
        {
          "internalType": "address payable",
          "name": "seller",
          "type": "address"
        },
        {
          "internalType": "address",
          "name": "buyer",
          "type": "address"
        },
        {
          "internalType": "string",
          "name": "itemName",
          "type": "string"
        },
        {
          "internalType": "string",
          "name": "description",
          "type": "string"
        },
        {
          "internalType": "uint256",
          "name": "inventory",
          "type": "uint256"
        },
        {
          "internalType": "uint256",
          "name": "price",
          "type": "uint256"
        }
      ],
      "payable": false,
      "stateMutability": "view",
      "type": "function"
    },
    {
      "constant": true,
      "inputs": [],
      "name": "numBuyers",
      "outputs": [
        {
          "internalType": "uint256",
          "name": "",
          "type": "uint256"
        }
      ],
      "payable": false,
      "stateMutability": "view",
      "type": "function"
    },
    {
      "constant": true,
      "inputs": [],
      "name": "numItems",
      "outputs": [
        {
          "internalType": "uint256",
          "name": "",
          "type": "uint256"
        }
      ],
      "payable": false,
      "stateMutability": "view",
      "type": "function"
    },
    {
      "constant": true,
      "inputs": [],
      "name": "numOrders",
      "outputs": [
        {
          "internalType": "uint256",
          "name": "",
          "type": "uint256"
        }
      ],
      "payable": false,
      "stateMutability": "view",
      "type": "function"
    },
    {
      "constant": true,
      "inputs": [
        {
          "internalType": "uint256",
          "name": "",
          "type": "uint256"
        }
      ],
      "name": "orders",
      "outputs": [
        {
          "internalType": "uint256",
          "name": "orderID",
          "type": "uint256"
        },
        {
          "internalType": "uint256",
          "name": "itemID",
          "type": "uint256"
        },
        {
          "internalType": "uint256",
          "name": "quantity",
          "type": "uint256"
        },
        {
          "internalType": "address",
          "name": "from",
          "type": "address"
        }
      ],
      "payable": false,
      "stateMutability": "view",
      "type": "function"
    },
    {
      "constant": true,
      "inputs": [],
      "name": "owner",
      "outputs": [
        {
          "internalType": "address payable",
          "name": "",
          "type": "address"
        }
      ],
      "payable": false,
      "stateMutability": "view",
      "type": "function"
    },
    {
      "constant": true,
      "inputs": [],
      "name": "paused",
      "outputs": [
        {
          "internalType": "bool",
          "name": "",
          "type": "bool"
        }
      ],
      "payable": false,
      "stateMutability": "view",
      "type": "function"
    },
    {
      "constant": false,
      "inputs": [
        {
          "internalType": "string",
          "name": "_itemName",
          "type": "string"
        },
        {
          "internalType": "string",
          "name": "_description",
          "type": "string"
        },
        {
          "internalType": "uint256",
          "name": "_inventory",
          "type": "uint256"
        },
        {
          "internalType": "uint256",
          "name": "_price",
          "type": "uint256"
        }
      ],
      "name": "sellItem",
      "outputs": [],
      "payable": false,
      "stateMutability": "nonpayable",
      "type": "function"
    },
    {
      "constant": false,
      "inputs": [
        {
          "internalType": "string",
          "name": "_name",
          "type": "string"
        },
        {
          "internalType": "string",
          "name": "_email",
          "type": "string"
        },
        {
          "internalType": "string",
          "name": "_shipAddress",
          "type": "string"
        }
      ],
      "name": "registerBuyer",
      "outputs": [],
      "payable": false,
      "stateMutability": "nonpayable",
      "type": "function"
    },
    {
      "constant": false,
      "inputs": [
        {
          "internalType": "uint256",
          "name": "_id",
          "type": "uint256"
        },
        {
          "internalType": "uint256",
          "name": "_quantity",
          "type": "uint256"
        }
      ],
      "name": "buyItem",
      "outputs": [],
      "payable": true,
      "stateMutability": "payable",
      "type": "function"
    },
    {
      "constant": false,
      "inputs": [
        {
          "internalType": "uint256",
          "name": "_itemID",
          "type": "uint256"
        },
        {
          "internalType": "string",
          "name": "_itemName",
          "type": "string"
        },
        {
          "internalType": "string",
          "name": "_description",
          "type": "string"
        },
        {
          "internalType": "uint256",
          "name": "_inventory",
          "type": "uint256"
        },
        {
          "internalType": "uint256",
          "name": "_price",
          "type": "uint256"
        }
      ],
      "name": "updateItem",
      "outputs": [],
      "payable": true,
      "stateMutability": "payable",
      "type": "function"
    },
    {
      "constant": true,
      "inputs": [],
      "name": "getItemsForSale",
      "outputs": [
        {
          "internalType": "uint256[]",
          "name": "",
          "type": "uint256[]"
        }
      ],
      "payable": false,
      "stateMutability": "view",
      "type": "function"
    },
    {
      "constant": true,
      "inputs": [],
      "name": "getOrders",
      "outputs": [
        {
          "internalType": "uint256[]",
          "name": "",
          "type": "uint256[]"
        }
      ],
      "payable": false,
      "stateMutability": "view",
      "type": "function"
    },
    {
      "constant": false,
      "inputs": [
        {
          "internalType": "address payable",
          "name": "_to",
          "type": "address"
        }
      ],
      "name": "withdrawFunds",
      "outputs": [],
      "payable": false,
      "stateMutability": "nonpayable",
      "type": "function"
    },
    {
      "constant": false,
      "inputs": [
        {
          "internalType": "bool",
          "name": "_paused",
          "type": "bool"
        }
      ],
      "name": "setPaused",
      "outputs": [],
      "payable": false,
      "stateMutability": "nonpayable",
      "type": "function"
    },
    {
      "constant": false,
      "inputs": [
        {
          "internalType": "address payable",
          "name": "_to",
          "type": "address"
        }
      ],
      "name": "destroyContract",
      "outputs": [],
      "payable": true,
      "stateMutability": "payable",
      "type": "function"
    }
  ],
  "bytecode": "0x6080604052600080546001600160a01b03191633179055611d05806100256000396000f3fe6080604052600436106100fe5760003560e01c80635c975abb116100955780639979c009116100645780639979c0091461059f578063a85c38ef146105c2578063be5b1cc81461061b578063bfb231d214610756578063f2aa8218146108a5576100fe565b80635c975abb146103dd57806368742da6146104065780638da5cb5b146104395780639978d4871461046a576100fe565b80632e2dc43e116100d15780632e2dc43e146103775780633e9199801461038c57806345d53788146103b35780635bfadae4146103c8576100fe565b8063016a373814610103578063064ddd041461012b5780631408910a1461019057806316c38b3c1461034b575b600080fd5b6101296004803603602081101561011957600080fd5b50356001600160a01b0316610a13565b005b34801561013757600080fd5b50610140610a68565b60408051602080825283518183015283519192839290830191858101910280838360005b8381101561017c578181015183820152602001610164565b505050509050019250505060405180910390f35b34801561019c57600080fd5b50610129600480360360608110156101b357600080fd5b810190602081018135600160201b8111156101cd57600080fd5b8201836020820111156101df57600080fd5b803590602001918460018302840111600160201b8311171561020057600080fd5b91908080601f0160208091040260200160405190810160405280939291908181526020018383808284376000920191909152509295949360208101935035915050600160201b81111561025257600080fd5b82018360208201111561026457600080fd5b803590602001918460018302840111600160201b8311171561028557600080fd5b91908080601f0160208091040260200160405190810160405280939291908181526020018383808284376000920191909152509295949360208101935035915050600160201b8111156102d757600080fd5b8201836020820111156102e957600080fd5b803590602001918460018302840111600160201b8311171561030a57600080fd5b91908080601f016020809104026020016040519081016040528093929190818152602001838380828437600092019190915250929550610bb9945050505050565b34801561035757600080fd5b506101296004803603602081101561036e57600080fd5b50351515610df9565b34801561038357600080fd5b50610140610e17565b34801561039857600080fd5b506103a1610f1b565b60408051918252519081900360200190f35b3480156103bf57600080fd5b506103a1610f21565b3480156103d457600080fd5b506103a1610f27565b3480156103e957600080fd5b506103f2610f2d565b604080519115158252519081900360200190f35b34801561041257600080fd5b506101296004803603602081101561042957600080fd5b50356001600160a01b0316610f3d565b34801561044557600080fd5b5061044e611061565b604080516001600160a01b039092168252519081900360200190f35b610129600480360360a081101561048057600080fd5b81359190810190604081016020820135600160201b8111156104a157600080fd5b8201836020820111156104b357600080fd5b803590602001918460018302840111600160201b831117156104d457600080fd5b91908080601f0160208091040260200160405190810160405280939291908181526020018383808284376000920191909152509295949360208101935035915050600160201b81111561052657600080fd5b82018360208201111561053857600080fd5b803590602001918460018302840111600160201b8311171561055957600080fd5b91908080601f0160208091040260200160405190810160405280939291908181526020018383808284376000920191909152509295505082359350505060200135611070565b610129600480360360408110156105b557600080fd5b5080359060200135611210565b3480156105ce57600080fd5b506105ec600480360360208110156105e557600080fd5b503561158d565b604080519485526020850193909352838301919091526001600160a01b03166060830152519081900360800190f35b34801561062757600080fd5b506101296004803603608081101561063e57600080fd5b810190602081018135600160201b81111561065857600080fd5b82018360208201111561066a57600080fd5b803590602001918460018302840111600160201b8311171561068b57600080fd5b91908080601f0160208091040260200160405190810160405280939291908181526020018383808284376000920191909152509295949360208101935035915050600160201b8111156106dd57600080fd5b8201836020820111156106ef57600080fd5b803590602001918460018302840111600160201b8311171561071057600080fd5b91908080601f01602080910402602001604051908101604052809392919081815260200183838082843760009201919091525092955050823593505050602001356115bd565b34801561076257600080fd5b506107806004803603602081101561077957600080fd5b5035611851565b60405180888152602001876001600160a01b03166001600160a01b03168152602001866001600160a01b03166001600160a01b031681526020018060200180602001858152602001848152602001838103835287818151815260200191508051906020019080838360005b838110156108035781810151838201526020016107eb565b50505050905090810190601f1680156108305780820380516001836020036101000a031916815260200191505b50838103825286518152865160209182019188019080838360005b8381101561086357818101518382015260200161084b565b50505050905090810190601f1680156108905780820380516001836020036101000a031916815260200191505b50995050505050505050505060405180910390f35b3480156108b157600080fd5b506108cf600480360360208110156108c857600080fd5b50356119ad565b60405180806020018060200180602001848103845287818151815260200191508051906020019080838360005b838110156109145781810151838201526020016108fc565b50505050905090810190601f1680156109415780820380516001836020036101000a031916815260200191505b50848103835286518152865160209182019188019080838360005b8381101561097457818101518382015260200161095c565b50505050905090810190601f1680156109a15780820380516001836020036101000a031916815260200191505b50848103825285518152855160209182019187019080838360005b838110156109d45781810151838201526020016109bc565b50505050905090810190601f168015610a015780820380516001836020036101000a031916815260200191505b50965050505050505060405180910390f35b6000546001600160a01b03163314610a5c5760405162461bcd60e51b8152600401808060200182810382526036815260200180611c9b6036913960400191505060405180910390fd5b806001600160a01b0316ff5b606060085460001415610a8f5760408051600080825260208201909252905b509050610bb6565b6060600854604051908082528060200260200182016040528015610abd578160200160208202803883390190505b509050600060015b6008548111610b42576000818152600760205260409020600201546001600160a01b0316158015610b06575060008181526007602052604090206005015415155b15610b3a576000818152600760205260409020548351849084908110610b2857fe5b60209081029190910101526001909101905b600101610ac5565b50606081604051908082528060200260200182016040528015610b6f578160200160208202803883390190505b50905060005b82811015610bb057838181518110610b8957fe5b6020026020010151828281518110610b9d57fe5b6020908102919091010152600101610b75565b50925050505b90565b600054600160a01b900460ff1615610c06576040805162461bcd60e51b815260206004820152601c6024820152600080516020611c5a833981519152604482015290519081900360640190fd5b6040805160608101825284815260208082018590528183018490526003805460010190819055600090815260028252929092208151805192939192610c4e9284920190611b78565b506020828101518051610c679260018501920190611b78565b5060408201518051610c83916002840191602090910190611b78565b50506003546001555060408051606080825285519082015284517f624f4304fbf516a2b116d55552f131a80ee97de17d19c4f9896100a1a0efca6e928692869286928291602080840192840191608085019189019080838360005b83811015610cf6578181015183820152602001610cde565b50505050905090810190601f168015610d235780820380516001836020036101000a031916815260200191505b50848103835286518152865160209182019188019080838360005b83811015610d56578181015183820152602001610d3e565b50505050905090810190601f168015610d835780820380516001836020036101000a031916815260200191505b50848103825285518152855160209182019187019080838360005b83811015610db6578181015183820152602001610d9e565b50505050905090810190601f168015610de35780820380516001836020036101000a031916815260200191505b50965050505050505060405180910390a1505050565b60008054911515600160a01b0260ff60a01b19909216919091179055565b606060115460001415610e3a576040805160008082526020820190925290610a87565b6060601154604051908082528060200260200182016040528015610e68578160200160208202803883390190505b509050600060015b6011548111610ead576000818152601060205260409020548351849084908110610e9657fe5b602090810291909101015260019182019101610e70565b50606081604051908082528060200260200182016040528015610eda578160200160208202803883390190505b50905060005b82811015610bb057838181518110610ef457fe5b6020026020010151828281518110610f0857fe5b6020908102919091010152600101610ee0565b60035481565b60115481565b60085481565b600054600160a01b900460ff1681565b6000546001600160a01b03163314610f865760405162461bcd60e51b8152600401808060200182810382526036815260200180611c9b6036913960400191505060405180910390fd5b600054600160a01b900460ff1615610fd3576040805162461bcd60e51b815260206004820152601c6024820152600080516020611c5a833981519152604482015290519081900360640190fd5b60004711611028576040805162461bcd60e51b815260206004820152601f60248201527f46756e6473206d7573742062652067726561746572207468616e207a65726f00604482015290519081900360640190fd5b6040516001600160a01b038216904780156108fc02916000818181858888f1935050505015801561105d573d6000803e3d6000fd5b5050565b6000546001600160a01b031681565b6000546001600160a01b031633146110b95760405162461bcd60e51b8152600401808060200182810382526036815260200180611c9b6036913960400191505060405180910390fd5b600054600160a01b900460ff1615611106576040805162461bcd60e51b815260206004820152601c6024820152600080516020611c5a833981519152604482015290519081900360640190fd5b60006008541161115d576040805162461bcd60e51b815260206004820152601f60248201527f5468657265206d757374206265206174206c65617374206f6e65206974656d00604482015290519081900360640190fd5b60008511801561116f57506008548511155b6111c0576040805162461bcd60e51b815260206004820181905260248201527f6974656d2077697468207468697320696420646f6573206e6f74206578697374604482015290519081900360640190fd5b6000858152600760209081526040909120855190916111e6916003840191880190611b78565b5083516111fc9060048301906020870190611b78565b506005810192909255600690910155505050565b600054600160a01b900460ff161561125d576040805162461bcd60e51b815260206004820152601c6024820152600080516020611c5a833981519152604482015290519081900360640190fd5b60015461129b5760405162461bcd60e51b8152600401808060200182810382526023815260200180611c376023913960400191505060405180910390fd5b6000600854116112dc5760405162461bcd60e51b8152600401808060200182810382526021815260200180611c7a6021913960400191505060405180910390fd5b6000821180156112ee57506008548211155b611335576040805162461bcd60e51b8152602060048201526013602482015272125d195b48191bd95cc81b9bdd08195e1a5cdd606a1b604482015290519081900360640190fd5b600082815260076020526040902060058101546113835760405162461bcd60e51b8152600401808060200182810382526026815260200180611c116026913960400191505060405180910390fd5b6000546001600160a01b03163314156113d8576040805162461bcd60e51b81526020600482015260126024820152712cb7ba9030b932903a34329039b2b63632b960711b604482015290519081900360640190fd5b34828260060154021461142b576040805162461bcd60e51b8152602060048201526016602482015275125b9d985b1a59081c1c9a58d9481c1c9bdd9a59195960521b604482015290519081900360640190fd5b6000816005015411611473576040805162461bcd60e51b815260206004820152600c60248201526b4f7574206f662073746f636b60a01b604482015290519081900360640190fd5b60058101805483900390556040805160808101825260128054600190810191829055908252602080830187815283850187815233606086019081526011805486019081905560009081526010909452959092209351845551918301919091555160028201559051600390910180546001600160a01b0319166001600160a01b039092169190911790556006810154820234111561154057600681015460405133918402340380156108fc02916000818181858888f1935050505015801561153e573d6000803e3d6000fd5b505b6012546040805191825260208201859052818101849052336060830152517fc0515c0f5c01028de590be660f9c27c6be164508c1a41a818bba6b9ad73649519181900360800190a1505050565b6010602052600090815260409020805460018201546002830154600390930154919290916001600160a01b031684565b6000546001600160a01b031633146116065760405162461bcd60e51b8152600401808060200182810382526036815260200180611c9b6036913960400191505060405180910390fd5b600054600160a01b900460ff1615611653576040805162461bcd60e51b815260206004820152601c6024820152600080516020611c5a833981519152604482015290519081900360640190fd5b6040805160e081018252600b80546001908101918290559082523360208084019182526000848601818152606086018b8152608087018b905260a087018a905260c08701899052600880548701908190558352600784529690912085518155925193830180546001600160a01b039586166001600160a01b031991821617909155905160028401805491909516911617909255925180519293926116fd9260038501920190611b78565b5060808201518051611719916004840191602090910190611b78565b5060a0820151816005015560c082015181600601559050507ffc16ab7f55d729144e6b60dd342572f41e949954c28497802aadee76994f4da6600b5485858585604051808681526020018060200180602001858152602001848152602001838103835287818151815260200191508051906020019080838360005b838110156117ac578181015183820152602001611794565b50505050905090810190601f1680156117d95780820380516001836020036101000a031916815260200191505b50838103825286518152865160209182019188019080838360005b8381101561180c5781810151838201526020016117f4565b50505050905090810190601f1680156118395780820380516001836020036101000a031916815260200191505b5097505050505050505060405180910390a150505050565b600760209081526000918252604091829020805460018083015460028085015460038601805489516101009682161596909602600019011692909204601f810188900488028501880190985287845293966001600160a01b039283169692909416949390918301828280156119075780601f106118dc57610100808354040283529160200191611907565b820191906000526020600020905b8154815290600101906020018083116118ea57829003601f168201915b5050505060048301805460408051602060026001851615610100026000190190941693909304601f81018490048402820184019092528181529495949350908301828280156119975780601f1061196c57610100808354040283529160200191611997565b820191906000526020600020905b81548152906001019060200180831161197a57829003601f168201915b5050505050908060050154908060060154905087565b600260208181526000928352604092839020805484516001821615610100026000190190911693909304601f8101839004830284018301909452838352928391830182828015611a3e5780601f10611a1357610100808354040283529160200191611a3e565b820191906000526020600020905b815481529060010190602001808311611a2157829003601f168201915b505050505090806001018054600181600116156101000203166002900480601f016020809104026020016040519081016040528092919081815260200182805460018160011615610100020316600290048015611adc5780601f10611ab157610100808354040283529160200191611adc565b820191906000526020600020905b815481529060010190602001808311611abf57829003601f168201915b50505060028085018054604080516020601f6000196101006001871615020190941695909504928301859004850281018501909152818152959695945090925090830182828015611b6e5780601f10611b4357610100808354040283529160200191611b6e565b820191906000526020600020905b815481529060010190602001808311611b5157829003601f168201915b5050505050905083565b828054600181600116156101000203166002900490600052602060002090601f016020900481019282601f10611bb957805160ff1916838001178555611be6565b82800160010185558215611be6579182015b82811115611be6578251825591602001919060010190611bcb565b50611bf2929150611bf6565b5090565b610bb691905b80821115611bf25760008155600101611bfc56fe54686520696e76656e746f7279206d75737420626520626967676572207468616e207a65726f416e206163636f756e74206d757374206265207265676973746572656420666972737454686520636f6e747261637420686173206265656e207061757365640000000054686572652073686f756c64206265206174206c65617374206f6e65206974656d546869732066756e6374696f6e2063616e206f6e6c792062652063616c6c65642062792074686520636f6e7472616374206f776e6572a265627a7a72315820fc09e46b17b591bb0010c79c8e05ce77be763379903ee54bf50e854a66579d5f64736f6c63430005100032",
  "source": "pragma solidity >0.4.99 <0.7.0;\r\n\r\nimport \"./Ownable.sol\";\r\n\r\ncontract MyShop is Ownable {\r\n    //data types\r\n    struct Item {\r\n        uint itemID;\r\n        address payable seller;\r\n        address buyer;\r\n        string itemName;\r\n        string description;\r\n        uint inventory;\r\n        uint price;\r\n    }\r\n    struct Buyer {\r\n        string name;\r\n        string email;\r\n        string shipAddress;\r\n    }\r\n    struct Order {\r\n        uint orderID;\r\n        uint itemID;\r\n        uint quantity;\r\n        address from;\r\n    }\r\n\r\n    //state variables\r\n    uint buyerID;\r\n    mapping (uint => Buyer) public buyers;\r\n    uint public numBuyers;\r\n    string name;\r\n    string email;\r\n    string shipAddress;\r\n\r\n    mapping (uint => Item) public items;\r\n    uint public numItems;\r\n    address seller;\r\n    address buyer;\r\n    uint itemID;\r\n    string itemName;\r\n    string description;\r\n    uint inventory;\r\n    uint price;\r\n\r\n    mapping (uint => Order) public orders;\r\n    uint public numOrders;\r\n    uint orderID;\r\n    uint quantity;\r\n    address from;\r\n\r\n    //events\r\n    event NewItem(\r\n        uint _itemID,\r\n        string _itemName,\r\n        string _description,\r\n        uint _inventory,\r\n        uint _price\r\n    );\r\n    event NewBuyer(\r\n        string _name,\r\n        string _email,\r\n        string _shipAddress\r\n    );\r\n    event NewOrder(\r\n        uint _orderID,\r\n        uint itemID,\r\n        uint _quantity,\r\n        address _from\r\n    );\r\n\r\n    //functions\r\n    //by owner only\r\n    function sellItem(string  memory _itemName, string memory _description, uint _inventory, uint _price) public onlyOwner pausable{\r\n        //storing the new item and incrementing the itemss count\r\n        items[++numItems] = Item(\r\n            ++itemID,\r\n            msg.sender,\r\n            address(0),\r\n            _itemName,\r\n            _description,\r\n            _inventory,\r\n            _price\r\n        );\r\n\r\n        //triggering the looging event\r\n        emit NewItem(itemID,_itemName,_description,_inventory,_price);\r\n    }\r\n\r\n    function registerBuyer(string memory _name, string memory _email, string memory _shipAddress) public pausable {\r\n    \tbuyers[++numBuyers] = Buyer(\r\n            _name,\r\n            _email,\r\n            _shipAddress\r\n        );\r\n\r\n        buyerID = numBuyers;\r\n\r\n    \temit NewBuyer(_name,_email,_shipAddress);\r\n    }\r\n\r\n    // Buying an item\r\n    function buyItem(uint _id, uint _quantity) public payable pausable {\r\n        require(buyerID != 0, \"An account must be registered first\");\r\n\r\n        require(numItems > 0, \"There should be at least one item\");\r\n\r\n        require(_id > 0 && _id <= numItems, \"Item does not exist\");\r\n\r\n        Item storage item = items[_id];\r\n\r\n        require(item.inventory > 0, \"The inventory must be bigger than zero\");\r\n\r\n        require((item.inventory - _quantity) >= 0, \"Quantity unavailable\");\r\n\r\n        require(msg.sender != owner, \"You are the seller\");\r\n\r\n        require((item.price * _quantity) == msg.value, \"Invalid price provided\");\r\n\r\n        require(item.inventory > 0, \"Out of stock\");\r\n\r\n        item.inventory = item.inventory - _quantity;\r\n\r\n\t\torders[++numOrders] = Order(\r\n            ++orderID,\r\n            _id,\r\n            _quantity,\r\n            msg.sender\r\n        );\r\n\r\n        if (msg.value > item.price * _quantity){\r\n            msg.sender.transfer(msg.value - (item.price * _quantity));\r\n        }\r\n\r\n    \temit NewOrder(orderID,_id,_quantity,msg.sender);\r\n    }\r\n\r\n    // NOT SURE ABOUT THIS FUNCTION\r\n    function updateItem(\r\n        uint _itemID,\r\n        string memory _itemName,\r\n        string memory _description,\r\n        uint _inventory,\r\n        uint _price\r\n        )\r\n    public payable onlyOwner pausable {\r\n\r\n        //checking if there is any item makes debugging easier\r\n        require (numItems > 0, \"There must be at least one item\");\r\n        //checking if the item id does exist\r\n        require(_itemID > 0 && _itemID <= numItems, \"item with this id does not exist\");\r\n\r\n        //retrieving the item with the given item id\r\n        Item storage item = items[_itemID];\r\n\r\n        //updating the item\r\n        item.itemName = _itemName;\r\n        item.description = _description;\r\n        item.inventory = _inventory;\r\n        item.price = _price;\r\n    }\r\n\r\n    function getItemsForSale() public view returns (uint[]memory) {\r\n        if(numItems == 0) {\r\n            return new uint[](0);\r\n        }\r\n\r\n        uint[] memory itemIds = new uint[](numItems);\r\n\r\n        uint numberOfItemsForSale = 0;\r\n        for (uint i = 1; i <= numItems; i++) {\r\n            if (items[i].buyer == address(0) && items[i].inventory > 0) {\r\n                itemIds[numberOfItemsForSale] = items[i].itemID;\r\n                numberOfItemsForSale++;\r\n            }\r\n        }\r\n\r\n        uint[] memory forSale = new uint[](numberOfItemsForSale);\r\n        for (uint j = 0; j < numberOfItemsForSale; j++) {\r\n            forSale[j] = itemIds[j];\r\n        }\r\n        return forSale;\r\n    }\r\n    \r\n    function getOrders() public view returns (uint[]memory) {\r\n        if(numOrders == 0) {\r\n            return new uint[](0);\r\n        }\r\n\r\n        uint[] memory OrderIds = new uint[](numOrders);\r\n\r\n        uint numberOfOrders = 0;\r\n        for (uint i = 1; i <= numOrders; i++) {\r\n            OrderIds[numberOfOrders] = orders[i].orderID;\r\n            numberOfOrders++;\r\n        }\r\n\r\n        uint[] memory newOrders = new uint[](numberOfOrders);\r\n        for (uint j = 0; j < numberOfOrders; j++) {\r\n            newOrders[j] = OrderIds[j];\r\n        }\r\n        return newOrders;\r\n    }\r\n\r\n    function withdrawFunds(address payable _to) public onlyOwner pausable {\r\n    \trequire(address(this).balance > 0, \"Funds must be greater than zero\");\r\n        _to.transfer(address(this).balance);\r\n    }\r\n\r\n    function setPaused(bool _paused) public {\r\n       paused = _paused;\r\n    }\r\n\r\n    function destroyContract(address payable _to) public payable onlyOwner {\r\n        selfdestruct(_to);\r\n    }\r\n}\r\n",
  "sourcePath": "D:\\Ahmed\\Courses\\blockchain\\project\\contracts\\MyShop.sol",
  "compiler": {
    "name": "solc",
    "version": "0.5.16+commit.9c3226ce.Emscripten.clang"
  },
  "schemaVersion": "3.1.0",
  "updatedAt": "2020-05-06T06:57:51.279Z",
  "networkType": "ethereum",
  "devdoc": {
    "methods": {}
  },
  "userdoc": {
    "methods": {}
  }
}