{
  "contractName": "Ownable",
  "abi": [
    {
      "inputs": [],
      "payable": false,
      "stateMutability": "nonpayable",
      "type": "constructor"
    },
    {
      "constant": true,
      "inputs": [],
      "name": "owner",
      "outputs": [
        {
          "internalType": "address payable",
          "name": "",
          "type": "address"
        }
      ],
      "payable": false,
      "stateMutability": "view",
      "type": "function"
    },
    {
      "constant": true,
      "inputs": [],
      "name": "paused",
      "outputs": [
        {
          "internalType": "bool",
          "name": "",
          "type": "bool"
        }
      ],
      "payable": false,
      "stateMutability": "view",
      "type": "function"
    }
  ],
  "bytecode": "0x608060405234801561001057600080fd5b50600080546001600160a01b0319163317905560c7806100316000396000f3fe6080604052348015600f57600080fd5b506004361060325760003560e01c80635c975abb1460375780638da5cb5b146051575b600080fd5b603d6073565b604080519115158252519081900360200190f35b60576083565b604080516001600160a01b039092168252519081900360200190f35b600054600160a01b900460ff1681565b6000546001600160a01b03168156fea265627a7a7231582003a38c5f8c747b24836147e358930c49694eb33b8be622f39a05d2595aa1d03664736f6c63430005100032",
  "source": "pragma solidity >0.4.99 <0.7.0;\n\ncontract Ownable {\n    // State variable\n    address payable public owner;\n    bool public paused;\n\n    // Modifiers\n    modifier onlyOwner() {\n        require(msg.sender == owner, \"This function can only be called by the contract owner\");\n        _;\n    }\n    modifier pausable {\n        require(!paused, \"The contract has been paused\");\n        _;\n    }\n\n    // constructor\n    constructor() public {\n        owner = msg.sender;\n    }\n}",
  "sourcePath": "D:\\Ahmed\\Courses\\blockchain\\project\\contracts\\Ownable.sol",
  "compiler": {
    "name": "solc",
    "version": "0.5.16+commit.9c3226ce.Emscripten.clang"
  },
  "schemaVersion": "3.1.0",
  "updatedAt": "2020-05-06T06:57:47.808Z",
  "devdoc": {
    "methods": {}
  },
  "userdoc": {
    "methods": {}
  }
}